:020000040800F2
:10000000480D002029020008030E000851030008D3
:10001000010E000865050008210F0008000000001F
:100020000000000000000000000000003B0200088B
:10003000670500080000000097020008050E000890
:10004000430200084302000843020008430200087C
:10005000430200084302000843020008430200086C
:10006000430200084302000843020008430200085C
:10007000430200084302000843020008430200084C
:10008000430200084302000843020008430200083C
:10009000430200084302000843020008430200082C
:1000A000430200084302000843020008430200081C
:1000B000430200084302000843020008430200080C
:1000C00043020008430200084302000843020008FC
:1000D00043020008430200084302000843020008EC
:1000E00043020008430200084302000843020008DC
:1000F00043020008430200084302000843020008CC
:1001000043020008430200084302000843020008BB
:1001100043020008430200084302000843020008AB
:10012000430200084302000843020008430200089B
:10013000430200084302000843020008430200088B
:10014000430200084302000843020008430200087B
:10015000430200084302000843020008430200086B
:10016000430200084302000843020008430200085B
:100170004302000843020008430200080000000098
:10018000430200084302000800F002F800F03CF8C7
:100190000AA090E8000C82448344AAF10107DA45E2
:1001A00001D100F031F8AFF2090EBAE80F0013F0F8
:1001B000010F18BFFB1A43F001031847941D0000FC
:1001C000B41D0000103A24BF78C878C1FAD852078D
:1001D00024BF30C830C144BF04680C6070470000C1
:1001E0000023002400250026103A28BF78C1FBD840
:1001F000520728BF30C148BF0B6070471FB501F0E0
:1002000000FE1FBD10B510BD00F06DF91146FFF7DF
:10021000F5FF00F0A2F900F08BF903B4FFF7F2FF4D
:1002200003BC00F093F900000948804709480047E3
:10023000FEE7FEE7FEE7FEE7FEE7FEE7FEE7FEE796
:10024000FEE7FEE704480549054A064B70470000F3
:10025000110F00088901000848070020480D002000
:100260004809002048090020EFF3108072B670475B
:1002700080F310887047444A1368012B04D04FF074
:1002800001031360414A1060414A116041484FF038
:10029000805101607047EFF3108272B63A480168EE
:1002A00051B34FF0000101603848016891B1EFF39C
:1002B00009811EF0100F08BF21ED108B21E9F00F0E
:1002C0004FF000041EF0100F08BF012441F8044D48
:1002D000006801602E490968096808C9B1E8F00F93
:1002E000002B18BFB1EC108B81F309884EF0100E73
:1002F000002B18BF2EF0100E82F310884EF0040E63
:10030000704723490860EFF3148222F0040282F35D
:1003100014881E494FF0000008601B494FF001008F
:1003200008601D481D49D0F8002041EA0201016023
:1003300018484FF08051016019480068006880F348
:10034000088861B662B6BFF34F8FBFF36F8F7047F7
:100350001EF0040F0CBFEFF30880EFF3098020E9D3
:10036000F00F40F804ED40F804ED1EF0040F0CBF50
:1003700080F3088880F3098800B500F0BDFF5DF8C0
:1003800004EB4EF0040E7047740000206C00002057
:100390007000002004ED00E020ED00E00000FFFF11
:1003A00008ED00E053EA020C00F069802DE9F04B03
:1003B0004FF00006002B1FBFB3FA83F503FA05F4D4
:1003C00024FA05F65E4012BF1643B2FA82F502FA2D
:1003D00005F4C5F120051EBF22FA05FC44EA0C0411
:1003E000203556EA044C4FEA144418BF641C4FF001
:1003F00000084FF00009904271EB030C39D300293B
:1004000019BFB1FA81F701FA07F6B0FA80F700FADE
:1004100007F6C7F120071EBF20FA07FC46EA0C06C4
:100420002037B6FBF4FCA7EB0507103F07F01F0BC6
:10043000CBF120060CFA0BFB2CFA06F644BFB346B0
:100440000026202FA4BF5E464FF0000B5BEA060C8F
:1004500008BF4FF0010B19EB0B09ABFB027C48EB1B
:100460000608C01B06FB02CC0BFB03CC71EB0C0196
:10047000C1E70B46024641464846BDE8F08B13B53E
:100480004FF000004FF00001AFF30080BDE81C40CA
:1004900070474FF0000200B5134694469646203947
:1004A00022BFA0E80C50A0E80C50B1F12001BFF42D
:1004B000F7AF090728BFA0E80C5048BF0CC05DF893
:1004C00004EB890028BF40F8042B08BF704748BFE1
:1004D00020F8022B11F0804F18BF00F8012B704755
:1004E000704770477047754600F02CF8AE4605001F
:1004F0006946534620F00700854618B020B5FFF73F
:10050000A1FEBDE820404FF000064FF000074FF07D
:1005100000084FF0000B21F00701AC46ACE8C00921
:10052000ACE8C009ACE8C009ACE8C0098D4670472A
:1005300010B50446AFF300802046BDE81040FFF739
:100540006CBE000000487047E806002001491820F2
:10055000ABBEFEE726000200704710B501F028FC94
:10056000002010BDFEE770472DE9F84FDFF8BCA171
:100570000022012503264FF00F090AF1040BAAF10E
:10058000040E00BF0B6805FA02F42340A34270D1A9
:100590000F7907F00307012F01D0022F16D18768CA
:1005A0004FEA420806FA08FC27EA0C07D1F80CC00B
:1005B0000CFA08FC4CEA070CC0F808C04768A743CF
:1005C0000C79C4F3001494403C4344600C79E44338
:1005D000A4070AD0C4684FEA420C06FA0CF7BC43E1
:1005E0008F6807FA0CF72743C7600C7904F00304FF
:1005F000022C12D1D40800EB840CDCF82040570701
:10060000FF0E09FA07F824EA0804D1F8108008FA66
:1006100007F848EA0408CCF8208004684FEA420C46
:1006200006FA0CF7BC430F7907F0030707FA0CF73B
:10063000274307604C6814F4403F70D03C4C276857
:1006400047F480472760246822F0030704F48044BD
:100650000094384C07EB040CDCF8084897074FEA85
:10066000177809FA08F7BC43334FB84202D1002784
:1006700024E054E0314FB84201D101271EE0304F51
:10068000B84201D1022719E02E4FB84201D1032709
:1006900014E02D4FB84201D104270FE02B4FB84290
:1006A00001D105270AE02A4FB84201D1062705E00B
:1006B000284FB84201D1072700E0082707FA08F7BA
:1006C0002743CCF80878DAF800405746D1F804C040
:1006D0009C435FEACC2C00D51C433C60DBF8004017
:1006E0005F46D1F804C09C435FEA8C2C00D51C43C4
:1006F0003C60DEF800407746D1F804C09C435FEAD6
:100700008C3C00D51C433C60084F083F3C68D1F846
:1007100004C09C435FEACC3C00D51C433C60521CA7
:10072000102AFFF42FAFBDE8F88F0000083C01400D
:100730004438024000300140000002400004024002
:1007400000080240000C0240001002400014024069
:1007500000180240001C02400AB181617047090480
:10076000FBE700000148806870470000000000209F
:100770000B4810B5016841F400710160016841F453
:1007800080610160016841F480710160032000F024
:1007900061F8002000F006F800F024F8002010BDF9
:1007A000003C024070B50D4D04464FF47A71287834
:1007B000B1FBF0F00A490968B1FBF0F000F0E4FA8F
:1007C00048B9102C07D200222146501E00F022F812
:1007D00000206C6070BD012070BD00000000002092
:1007E0000C0000200A4808B5016841F4804101600E
:1007F000006800F4804000900548001F016841F047
:1008000080510160006800F08050009008BD000039
:1008100044380240F0B40E4B1B680C46C3F302236D
:10082000C3F10705042D00D90425191D072901D29C
:10083000002300E0DB1E012606FA05F1491E2140D7
:1008400099409E40761E16403143F0BC00F069BBD3
:100850000CED00E0064900F0070208684FF6FF03C0
:10086000184040EA0220034A104308607047000025
:100870000CED00E00000FA052DE9F0470E460500FA
:1008800065D0DFF81481D8F80000F7B200F0070057
:10089000B04207D288F80070D8F8000000F00700D6
:1008A000B04254D128683D4C810712D5400703D58A
:1008B000206840F4E05020602878000703D52068C5
:1008C00040F4604020602068A96820F0F0000843F0
:1008D00020602878C0072DD0304968680839012881
:1008E00012D0022813D0032811D0096889070029E3
:1008F0002DDA216821F0030101432160FFF732FF67
:10090000814641F2883A0EE009688903EFE70968F9
:100910008901ECE7FFF726FFA0EB0901514502D959
:100920000320BDE8F0872068696800F00C00B0EB98
:10093000810FEFD1D8F80010404601F00701B14215
:1009400007D90770006800F00700B04201D001200D
:10095000E7E72878400705D52068E96820F4E050EB
:10096000084320602878000706D52068296920F40C
:10097000604040EAC100206000F01EF82168084A8B
:10098000C1F30311515CC84006490860064800687D
:10099000FFF708FF0020C4E7003C0240083802408F
:1009A0000C1E00080C000020040000200148006814
:1009B000704700000C000020154810B5006810F0CA
:1009C0000C02144813D01449042A0FD0082A0ED15F
:1009D0000F4C241F2268236802F03F025B0207D5F8
:1009E0002068C0F38810A0FB010106E0084610BD96
:1009F0002168C1F38811A1FB00010023FFF7D2FC9D
:100A00002168C1F30141491C4900B0FBF1F010BD60
:100A1000083802400024F40040787D012DE9F84FA9
:100A200004006ED02078DFF84C93C007A9F10405CC
:100A30004AD009F104000168C1F38101012908D0FD
:100A40000068C0F3810002280AD1D9F800004002F2
:100A500006D52868800337D560680028E1D033E0E8
:100A60006068B0F5803F10D0B0F5A02F286810D096
:100A700020F480302860286820F480202860606896
:100A8000A8B1FFF76FFE06460DE0286840F48030FD
:100A9000F4E740F480202860F7E700BFFFF762FE2C
:100AA000801B642873D828688003F7D50CE0FFF713
:100AB00059FE064605E000BFFFF754FE801B642880
:100AC000F0D828688003F7D42078DFF8AC8280075C
:100AD0004FF0000A3ED5A748001D016811F00C0F29
:100AE00008D00068C0F3810002280BD1D9F80000BB
:100AF000400207D42868800716D5E068012800D195
:100B000012E033E1E068B8B10120C8F80000FFF757
:100B100029FE064605E000BFFFF724FE801B0228E1
:100B2000C0D828688007F7D52868216920F0F80028
:100B300040EAC10028600DE0C8F800A0FFF712FEEF
:100B4000064604E0FFF70EFE801B02281FD8286827
:100B50008007F7D42078000722D5864F874861693F
:100B6000703771B101210160FFF7FCFD064604E01A
:100B7000FFF7F8FD801B022809D838688007F7D5F1
:100B80000EE0C0F800A0FFF7EDFD064605E082E0AC
:100B9000FFF7E8FD801B02287DD838688007F7D46E
:100BA0002078400768D5DFF8CCB100270BF13C0B6B
:100BB000DBF80000C0000BD4DBF8001041F08051DE
:100BC000CBF80010DBF80000012700F08050009007
:100BD0006B4E3068C00510D4306840F480703060CF
:100BE000FFF7C0FD009005E0FFF7BCFD0099401A3B
:100BF000022850D83068C005F6D55E4EA0686C3625
:100C000001280FD00528306810D020F00100306096
:100C1000306820F004003060A068B8B1FFF7A2FD92
:100C200000900FE0306840F00100F4E740F004006D
:100C30003060F7E7FFF796FD0099411A41F28830DE
:100C4000814266D830688007F4D50EE0FFF78AFD50
:100C5000009007E0FFF786FD0099411A41F28830C5
:100C6000814256D830688007F4D42FB1DBF80010E9
:100C700021F08051CBF80010A069C8B33D49091D8F
:100C80000968C1F3810102294AD00228504607D0E1
:100C9000C8F8600000E03CE0FFF764FD04463BE07C
:100CA0004746C8F86000FFF75DFD064605E000BF57
:100CB000FFF758FD801B02282BD828688001F7D445
:100CC000D4E907010843A16A2E4A490802EB014111
:100CD000626A41EA8211084394F82C1040EA0161EB
:100CE000C9F8001001203866FFF73CFD044606E015
:100CF0003EE000BFFFF736FD001B022809D8286838
:100D00008001F7D534E000BFFFF72CFD001B02285F
:100D100002D90320BDE8F88F28688001F4D427E0C9
:100D20000128F7D0D9F80000E26900F4800191426F
:100D30001CD1226A00F03F01914217D147F6C071E1
:100D4000626A0140B1EB821F10D1A26A4FF0FF33FB
:100D500000F4403103EB5202B1EB024F06D194F89C
:100D60002C1000F07060B0EB016F01D00120D1E7D2
:100D70000020CFE70438024000004742800E47427F
:100D8000007000400000FFFF10B5401EB0F1807FF2
:100D900001D3012010BD4FF0E02460610F216017E6
:100DA00000F0BFF80020A06107202061002010BDE6
:100DB00070B586B014216846FFF76BFB0E4800241F
:100DC000016841F02001016000680C4E00F0200035
:100DD0004FF480550590224629463046FFF7BCFC6B
:100DE00001200095CDE90104694630460394FFF7E0
:100DF000BBFB06B070BD000030380240001402405A
:100E0000FEE7FEE710B500F0A1FA00F069FDBDE8CD
:100E1000104000F0A9BA000010B592B03021684629
:100E2000FFF737FB14210CA8FFF733FB174800240A
:100E3000016841F080510160006800F0805011901D
:100E40001348016841F4804101600068069400F491
:100E50008040119002200090012003901020049007
:100E60006846FFF7DBFD08B172B6FEE70F20CDE95B
:100E70000C040E940F9400210CA81094FFF7FCFCB6
:100E8000002801D072B6FEE712B010BD4038024013
:100E90000070004070B5194C2068194A10F00C0120
:100EA000184804D0184D042903D0082903D0026043
:100EB0001BE0056019E01149091F0B68C3F3805658
:100EC0000B6803F03F0316B1B5FBF3F201E0B2FB90
:100ED000F3F20B680968C3F388135A43C1F3014165
:100EE000491C4900B2FBF1F101602168074AC1F3D6
:100EF0000311515C0268CA40026070BD08380240AC
:100F00000024F4000C00002040787D010C1E000835
:100F10000248016841F470010160704788ED00E00B
:100F2000FEE70907090E002804DB00F1E02080F845
:100F30000014704700F00F0000F1E02080F8141D4D
:100F400070470000002807D00E4910F0FF0F04D0B2
:100F500051FA80F00078401C704710F47F4F04D0A5
:100F6000C0F30720085C0930704710F47F0F04D0ED
:100F7000C0F30740085C1130704701EB1060007847
:100F8000193070471C1E000810B5044605488068DB
:100F9000FFF7D8FF0449401E51F830102060A1F13E
:100FA000140010BD50000020E805002070B50C486A
:100FB0000468FFF759F90546204600F00BFB04F1E1
:100FC000440000F01DFD042084F83400204600F0A9
:100FD0008BFB2846FFF74CF9BDE8704000F064BA7F
:100FE000540000202DE9FC411F460446DDE908318C
:100FF000DDE90A65143040600060C4E90827C4E9EF
:101000000A310A462321184600F0D6F9D4E90A012C
:101010004218D4E908010E4B121F00F079F9E06183
:1010200084F835600020C4E90E052564206384F847
:10103000340020676067009023460190054A1946F6
:1010400004F1440000F0F0FC0020BDE8FC81000049
:10105000AD0F00085910000870B50446FFF704F9F9
:1010600005466FF00100206304F1140000F091F9CF
:10107000204600F075FA2846FFF7FAF8BDE8704000
:1010800000F012BA143000F08DB90000FFF770FBC9
:10109000FFF7C2FEFFF78CFE0A4C4FF480564FF468
:1010A0007A75002231462046FFF756FB284600F0AD
:1010B00073FB012231462046FFF74EFB284600F025
:1010C0006BFBEEE70014024010B500F0C9F8BDE874
:1010D0001040FFF7DBBF00002DE9F04F85B09946C7
:1010E000DDE90EA5109CAB46630602D5DFF814C1FE
:1010F00003E0DFF810C1ACF1110CE30601D524F0D8
:101100000104E30701D0302300E0202300260493EC
:10111000A3070BD5002A02DA2D26524206E0630708
:1011200001D52B2602E0230700D520260023EE461A
:1011300022B930228DF8002001230CE0B9F10A0F0A
:1011400014D002F00F0812091CF808800EF8038072
:101150005B1C002AF2D1AB4200DD1D46AAEB050262
:1011600014F0110F4FF0200708D015E00A27B2FB4A
:10117000F7F807FB1828B2FBF7F2E5E73EB1002AC3
:1011800005DD521E03E0884200D20770401CB2F118
:10119000000CA2F10102F6DC26B1884200D20670F2
:1011A000401C521EE40605D508E0884201D2049C8A
:1011B0000470401C141EA2F10102F6DC30242E46FD
:1011C0006D1E9E420ADD884200D20470401CF6E784
:1011D000884201D2E55C0570401C00E074461D1E8B
:1011E000A3F1010307DDBBF1000FF1D103E0884259
:1011F00000D20770401C131EA2F10102F7DC05B0FB
:10120000BDE8F08F2D1F00081FB50A4C14230A22D9
:101210004FF48061A4F580608DE80F000023064A3A
:1012200006A1204600F0A0FA04B02046BDE8104018
:1012300000F000BB78040020C91000086D61696EE1
:101240000000000070B5044C044D02E020688047A7
:10125000241DAC42FAD370BD441F0008481F00088B
:1012600070B5044C044D02E020688047241DAC4258
:10127000FAD370BD481F00084C1F000810B5FEF7D8
:10128000F3FF044A5188491C5180BDE81040FEF725
:10129000EFBF00005000002010B5FEF7E5FF0B4C3B
:1012A0006188491E09B2618000290ADC0021618041
:1012B000FEF7DEFF6068002807D0BDE8104000F0B0
:1012C000F3B8BDE81040FEF7D3BF10BD50000020BA
:1012D00010B5FFF74DFAFFF79FFDFFF7DBFDFFF7B6
:1012E00065FB4FF47A71B0FBF1F0FFF74DFDBDE8FF
:1012F0001040FFF7A7BF0000044910B50968283067
:1013000011B18847002800D0FEE710BD680000201A
:1013100070B50446121D22F0070000220A4D443821
:1013200040F82250521C112AFAD3416200218162F6
:10133000C16200F13402016382E81A004FF0807349
:101340000364016070BD0000EFBEADDE10B5FEF7B6
:101350008BFF044A1178491C1170BDE81040FEF75C
:1013600087BF00001C00002010B5FEF77DFF044A77
:101370001178491E1170BDE81040FEF779BF0000DA
:101380001C0000200268516002680A600160486029
:101390007047D0E900124A60D0E900121160406045
:1013A00000607047D0E900124A60D0E90012116075
:1013B000406000607047000010B50346CCB2042ABC
:1013C0001AD3810718D1194644EA042343EA034398
:1013D00006E008C1103A08C141F8083B41F8043C56
:1013E000102AF6D201E008C1121F042AFBD20B46D4
:1013F00002E000BF03F8014B521EFBD210BD10B536
:10140000044600202072FEF72FFFF4E903124A6021
:10141000D4E90012116064602460BDE81040FEF75A
:1014200027BF0000074A002102EB01131B7883420B
:1014300002D102EB01107047491C0329F4DB0020A4
:1014400070470000200000202DE9F04105461746B6
:101450000E460846FFF7E6FF0446FFF70FFF211D83
:10146000606800E000688842FCD1FFF715FF46F095
:101470008000287208223946284600F0D9F8FEF785
:10148000F3FE54F8041F0C354D6021682960256077
:101490006C60BDE8F041FEF7EBBE007A000601D5B6
:1014A0000120704700207047F8B5FEF7DDFE2A4D99
:1014B00007466888D0BBA868C0B300266846FFF717
:1014C00063FD0446686890F8341001F00702032AAF
:1014D0000ED190F83520009B9A4202D303D10A071F
:1014E00001D4044600E0012621F0080180F8341000
:1014F000844222D0009A29462A7005464C600EB1DB
:1015000000F02EF8204600F065F894F8340020F042
:101510000700C01C84F834001048007804F11C0156
:10152000002805F11C0002D0FEF7A5FE0EE0FEF734
:10153000A2FE3846FEF79CFEF8BD00F04BF8686846
:1015400010F8341F21F00701C91C01703846BDE8AE
:10155000F840FEF78DBE0000500000201C00002067
:1015600070B50546FEF780FE184902464868854278
:1015700006D115F8340F20F00700C01C287020E0B9
:1015800095F8340005F1140420F00700401C85F89C
:10159000340003070E4895F8353000EBC30006D53C
:1015A00043681C60436863604460206005E0036832
:1015B0005C600368236004606060A86B8B681843FC
:1015C0008860BDE870401046FEF752BE5000002013
:1015D000E805002010B50446FEF746FE04F11401AC
:1015E000D1E900235360D1E900231A60A161616150
:1015F00094F83520074951F8323001EBC2018B4293
:1016000004D10549A36B8A689A438A60BDE81040FB
:10161000FEF72EBEE80500205000002070470FB4F2
:1016200010B504AA039900F0B3FB10BC5DF814FBDD
:1016300010B5002A07D0034611F8014B03F8014BFF
:101640002CB1521EF8D110BD03F8011B00E000219F
:10165000521EF9D110BD000010B5074B0022074CF7
:101660005A80104604EBC001401C496009602028E4
:10167000F8DB9A6010BD000050000020E805002053
:1016800038B56846FFF780FC0446064844602046AB
:10169000FFF7A0FF032084F8340004F11C00FEF7DC
:1016A00030FE38BD500000200148406000607047A7
:1016B000600000207047000070B50A4800250468EB
:1016C00084420DD0A4F11405FEF7CEFDD4E900123A
:1016D0004A60D4E90012116064602460FEF7C8FD1E
:1016E000284670BD14000020044914300A68506078
:1016F0000A68026008604160704700001400002022
:10170000FFF7DAFF0400FBD0256FFFF7C6FE0128C4
:1017100002D12046FFF773FE002DF1D02046A847E6
:10172000EEE7000010B586B000220BA104A8FFF779
:1017300076FF0B4820231F2280218DE80F00A0F1A7
:10174000780420460023074A04A900F00DF820463B
:1017500000F070F806B010BD7469646C6525640013
:1017600068050020011700082DE9FF5F92460EAAC8
:101770000C4692E8E0010A46994683460121FFF7AC
:1017800063FE8DE8E0014B46524621465846FFF77E
:1017900029FC04B0BDE8F09F10B500F082F8BDE868
:1017A000104000F025B870B5044690F8340000F001
:1017B0000700022802D04FF0FF3070BDFEF754FD45
:1017C000054604F11400FFF7E4FD04F1440000F0C5
:1017D00085F92046FFF7C4FE2846FEF749FD0020A4
:1017E00070BD0000014800687047000054000020F0
:1017F000F1B50F480468FEF737FD06460025204680
:10180000256300F02BF804F144006A4600210746E6
:1018100000F0D0F8384600F01FF93046FEF728FDFA
:10182000FFF742FE206B801C00D12563206BF8BDC2
:101830005400002010B590F83520012191408163BB
:10184000022180F83410FFF7AEFF0348006808B1AA
:10185000FFF72AFE002010BD5400002070B504469A
:1018600090F8340000F00700012804D0032802D0CB
:101870004FF0FF3070BDFEF7F7FC05462046FFF73E
:10188000A9FE94F8340020F00700801C84F834008E
:1018900004F1440000F022F92846FEF7E9FC00209C
:1018A00070BD002802DA4FF0FF3070474FF47A71B4
:1018B00090FBF1F290FBF1F301FB130000EB40030E
:1018C0004A43C3EBC0104B1E03EBC00090FBF1F08A
:1018D0001044704701480068704700001000002065
:1018E00010B5FEF7C1FC04460E480168491C0160B2
:1018F000FFF778FF016C491E016406D02046FEF711
:10190000B7FCBDE8104000F00FB8C16B016410F8DF
:10191000341F41F0080101702046FEF7A9FCFFF7D3
:10192000C3FDEEE7100000202DE9FC41CDF804D006
:10193000CDF800D0FFF7CEFF0646FEF795FC074630
:101940001B4D2DE060696FF00041301A143C884255
:1019500029D22046FFF796FB607A810702D420F057
:101960000100607204F1140188466846FFF70AFD21
:10197000D4E907108847FFF7ADFF0646009869468F
:1019800088420DD04046FFF70DFD607A810707D5EC
:10199000C10705D020F001006072204600F05CF81D
:1019A0002C68AC42CED13846FEF762FCBDE8FC8123
:1019B0006000002070B515460E460446FEF754FC44
:1019C000062E17D2DFE806F00503080C111A616A2B
:1019D0000FE0296861620DE0617A21F0020102E006
:1019E000617A41F00201617204E0617AC90700D0B6
:1019F00001212960FEF73CFC002070BDA16AF8E7D8
:101A000070B50446FEF730FC05462046FFF73AFB6A
:101A1000607A20F0010060722846FEF729FC20461B
:101A2000FFF7EDFC002070BD2DE9F0411746DDE920
:101A300006580A461E4604460A21FFF705FD28F00F
:101A4000010161720021C4E90951C4E90776143427
:101A500064602460BDE8F0812DE9F8430446FEF798
:101A600003FC80462046FFF70DFB607A20F0010062
:101A70006072FFF72FFF616A174A4318A3620020C4
:101A8000009202EBC002694656686FF000475DF8AD
:101A900020200AE01268A2EBC0056D699D4202D0C9
:101AA000ED1ABD4203D341F82020B242F2D10A48D8
:101AB000001F0168491C016004F114010098FFF740
:101AC00061FC607A40F0010060724046FEF7D0FB96
:101AD0000020BDE8F88300006000002070B50446D7
:101AE000407AC0070ED0FEF7BFFB05462046FFF741
:101AF000C9FA607A20F0010060722846FEF7B8FB50
:101B0000002070BD4FF0FF3070BD00002DE9FF4F89
:101B10008946044600EB090783B080464FF0FF3A40
:101B20004FF0200BA74202D25746C8F1FF390BE114
:101B3000252803D0BC4200D2207080E00026059901
:101B4000491C059108782D2811D02B2812D0202867
:101B500013D0232814D0302815D00A785546303AAF
:101B60000A2A13D205A800F038F905461AE046F013
:101B70001006E4E746F00406E1E746F00806DEE773
:101B800046F02006DBE746F00106D8E72A2809D10F
:101B90000698491C059120C80690002D02DA6D4276
:101BA00046F010060598D44601782E2918D1401C1D
:101BB00005900178A1F130020A2A04D205A800F0AC
:101BC0000CF9844607E02A2908D1401C05900698A4
:101BD00050F804CB0690BCF1000F01DA4FF0000C76
:101BE000059A00201178682901D06C2902D1521C75
:101BF0000846059211780A236F2974D00CDC6329FA
:101C00001FD004DC25296FD058290DD184E0642928
:101C100001D0692908D183E0702966D073292CD0BE
:101C200075297FD0782979D0BC4201D22520207037
:101C30000598641C0178E9B3BC4200D22170641C91
:101C40007FE0F00608D458466D1E002D04DDBC422E
:101C500000D22070641CF7E70698BC4210F8041B01
:101C6000069000D22170584602E0BC4200D220709B
:101C7000641C6D1E002DF8DC63E0069802C8069017
:101C800001B941A1002000E0401CA84202D00A5C3A
:101C9000002AF9D1BCF1000F02DD604500DD60468D
:101CA000F2060BD45A462B466D1E834206DDBC421B
:101CB00002D200E054E02270641CF4E7002206E047
:101CC000BC4201D20B782370491C521C641C824216
:101CD000F6DB5A4629466D1E814232DDBC4200D2F7
:101CE0002270641CF6E715E010E0681C02D108259C
:101CF00046F00106CDE9005C06980296102304C860
:101D000006903946204619E00CE007E0BC4296D226
:101D1000252011E7082305E046F04006102301E0E6
:101D200046F002066C2801D068281CD0069804C82A
:101D30000690CDE9005C394620460296FFF7CCF9C3
:101D400004460598401C05900598007800287FF40B
:101D5000EFAEB9F1000F11D0BC420DD220700DE0F2
:101D6000401E0590EDE7069830F8041B06908AB2F5
:101D7000B007DED512B2DCE707F8010C07B0A4EB20
:101D80000800BDE8F08F0000284E554C4C2900009B
:101D9000134610B50A464FF0FF31FFF7B7FE10BDEE
:101DA00000207047002070470020704700207047D7
:101DB00010B5FEF759FAFFF78BFAFFF72FFCFFF784
:101DC00073FCFFF749FCFFF71FFAFFF773FCFFF7FF
:101DD000A9FCFFF755FC002010BD10B501460020FE
:101DE0006FF02F0307E0541C0C60127800EB8000AA
:101DF00003EB400010440A681478303C0A2CF2D3FC
:101E000010BD4FF04070E1EE100A70470000000076
:101E10000000000001020304060708090000010099
:101E200002000100030001000200010004000100A3
:101E30000200010003000100020001000500010092
:101E40000200010003000100020001000400010083
:101E50000200010003000100020001000600010071
:101E60000200010003000100020001000400010063
:101E70000200010003000100020001000500010052
:101E80000200010003000100020001000400010043
:101E90000200010003000100020001000700010030
:101EA0000200010003000100020001000400010023
:101EB0000200010003000100020001000500010012
:101EC0000200010003000100020001000400010003
:101ED00002000100030001000200010006000100F1
:101EE00002000100030001000200010004000100E3
:101EF00002000100030001000200010005000100D2
:101F000002000100030001000200010004000100C2
:101F100002000100030001000200010030313233F1
:101F20003435363738396162636465660030313282
:101F30003334353637383941424344454600000092
:101F4000AD1D0008A51D0008A11D0008A91D000861
:101F5000701F00080000002078000000C401000885
:101F6000E81F000878000020D00C0000E001000805
:101F70000100000010000000000000000024F40038
:101F800000000000140000201400002000000000E9
:101F90000100000024000020240000207800000040
:101FA0000200000034000020340000202000000067
:101FB0000A00000044000020440000202C00000023
:101FC0000000000000000000000000000000000011
:101FD0000000000000000000000000000000000001
:081FE0000000000000000000F9
:040000050800018965
:00000001FF
