:020000040800F2
:1000000008140020290200081312000851030008F8
:1000100011120008B5070008B51400080000000020
:100020000000000000000000000000003B0200088B
:10003000B70700080000000097020008151200082A
:10004000430200084302000843020008430200087C
:10005000430200084302000843020008430200086C
:10006000430200084302000843020008430200085C
:10007000430200084302000843020008430200084C
:10008000430200084302000843020008430200083C
:10009000430200084302000843020008430200082C
:1000A000430200084302000843020008430200081C
:1000B000430200084302000843020008430200080C
:1000C00043020008430200084302000843020008FC
:1000D00043020008430200084302000843020008EC
:1000E00043020008430200084302000843020008DC
:1000F00043020008430200084302000843020008CC
:1001000043020008430200084302000843020008BB
:1001100043020008430200084302000843020008AB
:10012000430200084302000843020008430200089B
:10013000430200084302000843020008430200088B
:10014000430200084302000843020008430200087B
:10015000430200084302000843020008430200086B
:10016000430200084302000843020008430200085B
:100170004302000843020008430200080000000098
:10018000430200084302000800F002F800F03CF8C7
:100190000AA090E8000C82448344AAF10107DA45E2
:1001A00001D100F031F8AFF2090EBAE80F0013F0F8
:1001B000010F18BFFB1A43F001031847B0380000C5
:1001C000D0380000103A24BF78C878C1FAD8520756
:1001D00024BF30C830C144BF04680C6070470000C1
:1001E0000023002400250026103A28BF78C1FBD840
:1001F000520728BF30C148BF0B6070471FB503F0DE
:10020000A4FA1FBD10B510BD00F09AFA1146FFF711
:10021000F5FF00F0CAFA00F0B8FA03B4FFF7F2FFF6
:1002200003BC00F0BBFA00000948804709480047BA
:10023000FEE7FEE7FEE7FEE7FEE7FEE7FEE7FEE796
:10024000FEE7FEE704480549054A064B70470000F3
:100250002113000889010008080E0020081400205E
:100260000810002008100020EFF3108072B67047CD
:1002700080F310887047444A1368012B04D04FF074
:1002800001031360414A1060414A116041484FF038
:10029000805101607047EFF3108272B63A480168EE
:1002A00051B34FF0000101603848016891B1EFF39C
:1002B00009811EF0100F08BF21ED108B21E9F00F0E
:1002C0004FF000041EF0100F08BF012441F8044D48
:1002D000006801602E490968096808C9B1E8F00F93
:1002E000002B18BFB1EC108B81F309884EF0100E73
:1002F000002B18BF2EF0100E82F310884EF0040E63
:10030000704723490860EFF3148222F0040282F35D
:1003100014881E494FF0000008601B494FF001008F
:1003200008601D481D49D0F8002041EA0201016023
:1003300018484FF08051016019480068006880F348
:10034000088861B662B6BFF34F8FBFF36F8F7047F7
:100350001EF0040F0CBFEFF30880EFF3098020E9D3
:10036000F00F40F804ED40F804ED1EF0040F0CBF50
:1003700080F3088880F3098800B502F0F3F95DF88E
:1003800004EB4EF0040E7047A8000020A0000020EF
:10039000A400002004ED00E020ED00E00000FFFFDD
:1003A00008ED00E053EA020C00F069802DE9F04B03
:1003B0004FF00006002B1FBFB3FA83F503FA05F4D4
:1003C00024FA05F65E4012BF1643B2FA82F502FA2D
:1003D00005F4C5F120051EBF22FA05FC44EA0C0411
:1003E000203556EA044C4FEA144418BF641C4FF001
:1003F00000084FF00009904271EB030C39D300293B
:1004000019BFB1FA81F701FA07F6B0FA80F700FADE
:1004100007F6C7F120071EBF20FA07FC46EA0C06C4
:100420002037B6FBF4FCA7EB0507103F07F01F0BC6
:10043000CBF120060CFA0BFB2CFA06F644BFB346B0
:100440000026202FA4BF5E464FF0000B5BEA060C8F
:1004500008BF4FF0010B19EB0B09ABFB027C48EB1B
:100460000608C01B06FB02CC0BFB03CC71EB0C0196
:10047000C1E70B46024641464846BDE8F08B13B53E
:100480004FF000004FF00001AFF30080BDE81C40CA
:10049000704740EA0103024630B59B0710D14FF088
:1004A000013400E008C208C91D1B9D4315EAC41FA2
:1004B000F8D013F0FF0102F8011B0DD01B0AF8E77A
:1004C00011F8013B002B02F8013B05D011F8013B6C
:1004D000002B02F8013BF3D130BD10B5431C02E004
:1004E00010F8011B71B18107FAD14FF0013202C837
:1004F0008C1A8C4314EAC211F9D0C01A0A0603D030
:10050000C01E10BDC01A10BD0A0401D0801E10BD4F
:100510000902FCD0401E10BD40EA010370B59B07E4
:100520002ED14FF00136042A2AD308C810C99D1BCA
:100530009D43121F15EAC61517D0D8B2E1B2401A72
:1005400050EA056110D198B2A1B2401A50EA0541B3
:100550000AD123F07F4024F07F41401A50EA052160
:1005600002D1180EA0EB146070BDA342DBD018BA04
:1005700021BA884201D9012070BD4FF0FF3070BD13
:100580000AB9002070BD10F8013B11F8014B63B1AE
:10059000A3420AD1521E08D010F8013B11F8014BBA
:1005A0001BB1A34201D1521EEDD1181B70BD421EDA
:1005B00012F8013F002BFBD111F8013B002B02F890
:1005C000013BF9D170474FF0000200B51346944645
:1005D0009646203922BFA0E80C50A0E80C50B1F19B
:1005E0002001BFF4F7AF090728BFA0E80C5048BFAF
:1005F0000CC05DF804EB890028BF40F8042B08BF4D
:10060000704748BF20F8022B11F0804F18BF00F848
:10061000012B704710B5044610F0030F08BF11F00E
:10062000030F40F015804FF0013E121FC0F20E8004
:1006300051F8043BA3EB0E0C2CEA030C1CEACE1C75
:1006400008BF40F8043BF0D0A1F1040102F104021C
:10065000521E08DB11F8013B002B00F8013BF7D1DB
:10066000114600F046F8204610BD00004FF0013C56
:1006700050F8042B51F8043B9A4221D1A2EB0C0311
:10068000934313EACC1317D150F8042B51F8043BD1
:100690009A4215D1A2EB0C03934313EACC130BD16E
:1006A00050F8042B51F8043B9A4209D1A2EB0C03F9
:1006B000934313EACC13DBD04FF00000704700BF28
:1006C000D01A01BAB1FA81F101F0180122FA01F051
:1006D000CB40C1F12001DBB2C0B2C01A2CFA01F349
:1006E000D11A914311EAC311E6D1704770477047A0
:1006F00070474FF000020429C0F0128010F0030C84
:100700003FF463AFCCF1040CBCF1020F18BF00F84A
:10071000012BA8BF20F8022BA1EB0C01FFF755BF5E
:100720005FEAC17C24BF00F8012B00F8012B48BF11
:1007300000F8012B7047000000487047A80D00200A
:100740007546FFF7F9FFAE4605006946534620F0AF
:100750000700854618B020B5FFF774FDBDE82040BE
:100760004FF000064FF000074FF000084FF0000B6D
:1007700021F00701AC46ACE8C009ACE8C009ACE820
:10078000C009ACE8C0098D46704710B50446AFF308
:1007900000802046BDE81040FFF73FBD014918200A
:1007A000ABBEFEE726000200704710B502F01CFF4A
:1007B000002010BDFEE7704772B6FEE72DE9F84F46
:1007C000DFF8BCA10022012503264FF00F090AF132
:1007D000040BAAF1040E00BF0B6805FA02F42340D3
:1007E000A34270D10F7907F00307012F01D0022F28
:1007F00016D187684FEA420806FA08FC27EA0C0778
:10080000D1F80CC00CFA08FC4CEA070CC0F808C080
:100810004768A7430C79C4F3001494403C434460F8
:100820000C79E443A4070AD0C4684FEA420C06FAE4
:100830000CF7BC438F6807FA0CF72743C7600C79A5
:1008400004F00304022C12D1D40800EB840CDCF871
:1008500020405707FF0E09FA07F824EA0804D1F8E8
:10086000108008FA07F848EA0408CCF820800468E9
:100870004FEA420C06FA0CF7BC430F7907F0030766
:1008800007FA0CF7274307604C6814F4403F70D018
:100890003C4C276847F480472760246822F0030710
:1008A00004F480440094384C07EB040CDCF808484E
:1008B00097074FEA177809FA08F7BC43334FB84255
:1008C00002D1002724E054E0314FB84201D1012782
:1008D0001EE0304FB84201D1022719E02E4FB84236
:1008E00001D1032714E02D4FB84201D104270FE0B6
:1008F0002B4FB84201D105270AE02A4FB84201D157
:10090000062705E0284FB84201D1072700E0082755
:1009100007FA08F72743CCF80878DAF8004057467A
:10092000D1F804C09C435FEACC2C00D51C433C604A
:10093000DBF800405F46D1F804C09C435FEA8C2C92
:1009400000D51C433C60DEF800407746D1F804C077
:100950009C435FEA8C3C00D51C433C60084F083F39
:100960003C68D1F804C09C435FEACC3C00D51C43F2
:100970003C60521C102AFFF42FAFBDE8F88F000036
:10098000083C014044380240003001400000024071
:100990000004024000080240000C02400010024027
:1009A0000014024000180240001C02400148806808
:1009B00070470000000000200B4810B5016841F4AA
:1009C00000710160016841F480610160016841F4D7
:1009D00080710160032000F061F8002000F006F84B
:1009E00000F024F8002010BD003C024070B50D4D11
:1009F00004464FF47A712878B1FBF0F00A4909688F
:100A0000B1FBF0F000F004FB48B9102C07D2002233
:100A10002146501E00F022F800206C6070BD0120BD
:100A200070BD0000000000200C0000200A4808B53E
:100A3000016841F480410160006800F4804000904A
:100A40000548001F016841F080510160006800F016
:100A50008050009008BD000044380240F0B40E4BB6
:100A60001B680C46C3F30223C3F10705042D00D90C
:100A70000425191D072901D2002300E0DB1E0126F1
:100A800006FA05F1491E214099409E40761E164007
:100A90003143F0BC00F00FBD0CED00E0064900F062
:100AA000070208684FF6FF03184040EA0220034A95
:100AB00010430860704700000CED00E00000FA05EC
:100AC0002DE9F0470E46050065D0DFF81481D8F80F
:100AD0000000F7B200F00700B04207D288F80070BB
:100AE000D8F8000000F00700B04254D128683D4C0F
:100AF000810712D5400703D5206840F4E0502060FC
:100B00002878000703D5206840F460402060206802
:100B1000A96820F0F000084320602878C0072DD095
:100B2000304968680839012812D0022813D00328F8
:100B300011D00968890700292DDA216821F0030105
:100B400001432160FFF732FF814641F2883A0EE00F
:100B500009688903EFE709688901ECE7FFF726FFD9
:100B6000A0EB0901514502D90320BDE8F0872068B8
:100B7000696800F00C00B0EB810FEFD1D8F80010DD
:100B8000404601F00701B14207D90770006800F044
:100B90000700B04201D00120E7E72878400705D5DB
:100BA0002068E96820F4E0500843206028780007B6
:100BB00006D52068296920F4604040EAC100206021
:100BC00000F03EF82168084AC1F30311515CC840A7
:100BD0000649086006480068FFF708FF0020C4E7E0
:100BE000003C024008380240543700080C00002046
:100BF0000400002001480068704700000C0000203D
:100C00000448054900680968044AC1F38221515C1F
:100C1000C84070470C0000200838024064370008C4
:100C20000448054900680968044AC1F34231515C2F
:100C3000C84070470C0000200838024064370008A4
:100C4000154810B5006810F00C02144813D0144970
:100C5000042A0FD0082A0ED10F4C241F22682368C3
:100C600002F03F025B0207D52068C0F38810A0FBAA
:100C7000010106E0084610BD2168C1F38811A1FBFF
:100C800000010023FFF78EFB2168C1F30141491CDD
:100C90004900B0FBF1F010BD083802400024F40018
:100CA00040787D012DE9F84F04006ED02078DFF800
:100CB0004C93C007A9F104054AD009F1040001686A
:100CC000C1F38101012908D00068C0F38100022826
:100CD0000AD1D9F80000400206D52868800337D52C
:100CE00060680028E1D033E06068B0F5803F10D044
:100CF000B0F5A02F286810D020F480302860286834
:100D000020F4802028606068A8B1FFF74FFE0646F7
:100D10000DE0286840F48030F4E740F4802028603B
:100D2000F7E700BFFFF742FE801B642873D82868EE
:100D30008003F7D50CE0FFF739FE064605E000BF5B
:100D4000FFF734FE801B6428F0D828688003F7D4AE
:100D50002078DFF8AC8280074FF0000A3ED5A74824
:100D6000001D016811F00C0F08D00068C0F381006D
:100D700002280BD1D9F80000400207D42868800768
:100D800016D5E068012800D112E033E1E068B8B17F
:100D90000120C8F80000FFF709FE064605E000BF85
:100DA000FFF704FE801B0228C0D828688007F7D50B
:100DB0002868216920F0F80040EAC10028600DE0B1
:100DC000C8F800A0FFF7F2FD064604E0FFF7EEFDCD
:100DD000801B02281FD828688007F7D420780007D6
:100DE00022D5864F87486169703771B10121016052
:100DF000FFF7DCFD064604E0FFF7D8FD801B022864
:100E000009D838688007F7D50EE0C0F800A0FFF7D2
:100E1000CDFD064605E082E0FFF7C8FD801B0228F5
:100E20007DD838688007F7D42078400768D5DFF888
:100E3000CCB100270BF13C0BDBF80000C0000BD459
:100E4000DBF8001041F08051CBF80010DBF8000017
:100E5000012700F0805000906B4E3068C00510D420
:100E6000306840F480703060FFF7A0FD009005E02E
:100E7000FFF79CFD0099401A022850D83068C00541
:100E8000F6D55E4EA0686C3601280FD00528306874
:100E900010D020F001003060306820F00400306095
:100EA000A068B8B1FFF782FD00900FE0306840F015
:100EB0000100F4E740F004003060F7E7FFF776FD4B
:100EC0000099411A41F28830814266D83068800723
:100ED000F4D50EE0FFF76AFD009007E0FFF766FD2E
:100EE0000099411A41F28830814256D83068800713
:100EF000F4D42FB1DBF8001021F08051CBF80010B2
:100F0000A069C8B33D49091D0968C1F381010229DF
:100F10004AD00228504607D0C8F8600000E03CE004
:100F2000FFF744FD04463BE04746C8F86000FFF782
:100F30003DFD064605E000BFFFF738FD801B022897
:100F40002BD828688001F7D4D4E907010843A16AA7
:100F50002E4A490802EB0141626A41EA82110843C4
:100F600094F82C1040EA0161C9F80010012038669D
:100F7000FFF71CFD044606E03EE000BFFFF716FD4C
:100F8000001B022809D828688001F7D534E000BF8B
:100F9000FFF70CFD001B022802D90320BDE8F88FE3
:100FA00028688001F4D427E00128F7D0D9F80000A0
:100FB000E26900F4800191421CD1226A00F03F01F5
:100FC000914217D147F6C071626A0140B1EB821FAE
:100FD00010D1A26A4FF0FF3300F4403103EB52020C
:100FE000B1EB024F06D194F82C1000F07060B0EB1A
:100FF000016F01D00120D1E70020CFE70438024083
:1010000000004742800E4742007000400000FFFF92
:1010100010B5401EB0F1807F01D3012010BD4FF00C
:10102000E02460610F21601700F045FA0020A06104
:1010300007202061002010BD70B5040004D094F892
:101040003D00002510B106E0012070BD84F83C5041
:10105000204600F023F8242084F83D002068C16871
:1010600021F40051C160204600F062F92068016956
:1010700021F4904101612068416921F02A01416118
:101080002068C16841F40051C1602564202084F8C3
:101090003D0084F83E00002070BD000010B586B011
:1010A000044614216846FFF78EFA144920688842E6
:1010B00021D113480021026842F01002026000684A
:1010C00000F0100005900E481438026842F001024A
:1010D0000260006800F0010005904FF4C0600090CD
:1010E0000220CDE901010320039007200490694606
:1010F0000448FFF763FB06B010BD0000001001407C
:1011000044380240000002402DE9F843044690F8BC
:101110003D001F4616460D4620284CD1C5B1BEB134
:1011200094F83C00012846D0012084F83C004FF0A0
:101130000008C4F84080212084F83D00FFF736FC09
:10114000A6848146E684A068B0F5805F03D004E001
:101150000120BDE8F883206928B12E465FF0000524
:1011600084F83C800EE00026FAE78021204600F05B
:1011700065F9A0B9AEB116F8010B21684860E08CA2
:10118000401EE084E08C4B464FF0000200970028A0
:10119000EBD14FF04001204600F050F930B1032070
:1011A000D7E735F8020BC0F30800E6E7202084F803
:1011B0003D000020CDE70220CBE70000054808B540
:1011C000016841F001010160006800F00100009039
:1011D00008BD0000303802400C4810B50A490160D3
:1011E0004FF4E1314160002181600C22C160C0E90F
:1011F00004128161C161FFF71FFF002803D0BDE821
:101200001040FFF7D9BA10BD00100140BC0000200B
:10121000FEE7FEE710B501F0CDFB01F07DFFBDE874
:10122000104001F0D5BB000010B592B030216846E7
:10123000FFF7C9F914210CA8FFF7C5F917480024D6
:10124000016841F080510160006800F08050119009
:101250001348016841F4804101600068069400F47D
:1012600080401190022000900120039010200490F3
:101270006846FFF717FD08B172B6FEE70F20CDE90B
:101280000C040E940F9400210CA81094FFF718FC86
:10129000002801D072B6FEE712B010BD40380240FF
:1012A0000070004070B5194C2068194A10F00C010C
:1012B000184804D0184D042903D0082903D002602F
:1012C0001BE0056019E01149091F0B68C3F3805644
:1012D0000B6803F03F0316B1B5FBF3F201E0B2FB7C
:1012E000F3F20B680968C3F388135A43C1F3014151
:1012F000491C4900B2FBF1F101602168074AC1F3C2
:101300000311515C0268CA40026070BD0838024097
:101310000024F4000C00002040787D0154370008C0
:101320000248016841F470010160704788ED00E0F7
:1013300070B5044600680169E26821F44051114328
:1013400001612169A068E2690843616911430843AA
:101350002168CA6849F20C639A430243CA60206854
:101360004169A26921F4407111434161314920680A
:10137000884202D03049884202D1FFF751FC01E097
:10138000FFF73EFCE2690023192164253226B2F5FD
:10139000004F626828D0A0FB0101930F9200FFF775
:1013A00001F80146B0FBF5F06FF01802504301EB75
:1013B000800006EB0010B0FBF5F000F0F002B1FB8E
:1013C000F5F002EB0012B1FBF5F06FF01803584393
:1013D00001EB800006EB0010B0FBF5F000F00F0011
:1013E00021681044886070BDA0FB010192185B4128
:1013F000FEF7D8FF0146B0FBF5F00201B1FBF5F0B6
:101400006FF01803584301EB800006EBC000B0FBFF
:10141000F5F000F0F80002EB4002B1FBF5F05843A4
:1014200001EB800006EBC000B0FBF5F000F0070018
:10143000D6E7000000100140001401402DE9F04102
:10144000984617460E460446069D27E0681C25D0A0
:101450002DB1FFF7ABFAA0EB0800A8421ED9206817
:101460000C3050E8001F21F4D07140E80012002A2F
:10147000F5D12068143050E8001F21F0010140E848
:101480000012002AF5D1202084F83D0084F83E00A7
:10149000002084F83C000320BDE8F081206800684B
:1014A00036EA000004D00020B842CFD00020F3E795
:1014B0000120F9E7FEE70907090E002804DB00F127
:1014C000E02080F80014704700F00F0000F1E020E9
:1014D00080F8141D70470000002807D00E4910F056
:1014E000FF0F04D051FA80F00078401C704710F4D0
:1014F0007F4F04D0C0F30720085C0930704710F418
:101500007F0F04D0C0F30740085C1130704701EB37
:1015100010600078193070476C3700082DE9F047EB
:1015200088B091468A460646002500E06D1C705D35
:10153000202803D0092801D05545F7D34FF0FF38B4
:1015400035B31448144F046809E02A463146206830
:10155000FEF7E2FF10B92068405D20B10C34386816
:101560008442F2D314E0A46894B12022002168469A
:1015700001F0B4FA6A465146304600F037FF38B100
:101580006946A047C9F80000002008B0BDE8F08710
:101590004046FAE7AC000020B000002010B5044639
:1015A00005488068FFF798FF0449401E51F8301045
:1015B0002060A1F1140010BD84000020F00600207E
:1015C00070B50C480468FEF74FFE0546204601F052
:1015D00093FB04F1440001F02FFE042084F8340052
:1015E000204601F09DFC2846FEF742FEBDE8704013
:1015F00001F0ECBA880000202DE9FC411F460446AA
:10160000DDE90831DDE90A65143040600060C4E9B5
:101610000827C4E90A310A462321184601F05EFA78
:10162000D4E90A014218D4E908010E4B121F01F057
:10163000A3F9E06184F835600020C4E90E05256453
:10164000206384F83400206760670090234601908F
:10165000054A194604F1440001F002FE0020BDE8ED
:10166000FC810000C11500086D16000870B5044625
:10167000FEF7FAFD05466FF00100206304F1140047
:1016800001F0DAF9204601F0FDFA2846FEF7F0FDF8
:10169000BDE8704001F09ABA143001F0D6B90000EC
:1016A00010B51BA001F0A2F91C4C21781CA001F080
:1016B0009DF92078C00702D01FA001F097F920788B
:1016C000800702D51FA001F091F92078400702D5CC
:1016D0001FA001F08BF92078000702D520A001F0AF
:1016E00085F92078C00602D520A001F07FF9207886
:1016F000000607D509480F300168BDE810401DA05D
:1017000001F074B9BDE810401EA001F06FB90000EF
:10171000627573206661756C743A0A0029ED00E009
:101720005343425F434653525F424653523A3078E6
:10173000253032582000000049425553455252206E
:1017400000000000505245434953455252200000CA
:10175000494D505245434953455252200000000024
:10176000554E53544B4552522000000053544B45A4
:10177000525220005343422D3E424641523A2530B8
:1017800038580A000A00000010B502A001F02EF936
:10179000002010BD1B5B324A1B5B480010B50C4695
:1017A000022811D115A16068FEF760FF00281BD048
:1017B00014A16068FEF75AFF002818D013A16068D2
:1017C000FEF754FF002815D011A001F00FF916A064
:1017D00001F00CF917A001F009F91DA001F006F9BC
:1017E00022A001F003F907E000F022FB04E000F082
:1017F000FDFB01E000F07AFA002010BD746872650C
:101800006164000074696D657200000073656D00AD
:1018100055736167653A206C697374205B6F7074EF
:10182000696F6E735D0A00005B6F7074696F6E7331
:101830005D3A0A0020202020746872656164202DC2
:10184000206C69737420746872656164730A0000A7
:101850002020202074696D6572202D206C697374BE
:101860002074696D6572730A00000000202020203A
:1018700073656D202D206C6973742073656D6170C4
:10188000686F7265730A00000D4810B5C16891F861
:101890002110890703D40B49002008700EE08168ED
:1018A00021B180220748FEF7B5FE03E006A10548F6
:1018B000FEF7EFFD06A10348FEF779FE014810BDD3
:1018C000AC000020340800206D7368200000000088
:1018D0003E0000000349C96811F8212F60F341025E
:1018E0000A707047AC000020014AC2E9000170474D
:1018F000AC0000207FB514491448FFF7F5FF154CE4
:1019000013480A23A0F58F65E06015224FF480612B
:10191000A0F580608DE80F0000230F4A0FA17838F2
:1019200001F03EFB064600231A460EA1E06801F0D6
:1019300007FA0120FFF7CEFF16B9284601F096FB03
:1019400004B0002070BD00006C3A0008183A00088E
:10195000300D0020AC0000206D190008747368651C
:101960006C6C00007368727800000000944DE868A9
:1019700010F8211F41F001010170FFF785FF01F010
:1019800035F8002600F0B6FE0400FBD41B2C07D06F
:10199000E86890F82010012907D002290ED017E03E
:1019A000E968012081F82000ECE75B2C02D080F888
:1019B00020600DE0022180F82010E3E780F820602D
:1019C000412CDFD0422CDDD0442C38D0432C43D0E6
:1019D000002CD7D0FF2CD5D0092C4ED07F2C71D025
:1019E000082C6FD00D2C6CD00A2C6AD0B0F8741073
:1019F000502901D3A0F87460B0F87630B0F87410B4
:101A00008B427DD2CA1A00F12201233019441844B6
:101A100001F04AF8E868B0F8761022300C54E86813
:101A200090F82110C90706D0B0F876102230014492
:101A300064A000F0DBFFE868B0F876409DE0B0F805
:101A4000760000289ED060A000F0D0FFE96831F851
:101A5000760F401E088095E7B0F87610B0F8742035
:101A600091428FD22230095C58A000F0BFFFE86895
:101A700030F8761F491C018084E7002403E052A05F
:101A800000F0B4FF641CE868B0F87600A042F6DC11
:101A9000EC684FA0223400F0A9FF204600F0FAFBCA
:101AA000FFF7F2FE014622464AA000F09FFFE868D9
:101AB0002230FEF712FDE96821F8740F488061E7D3
:101AC00000E03DE0B0F87620002AC4D0B0F87410F1
:101AD000521E491E89B293B2A0F87410A0F8763055
:101AE000994224D9CA1A00F123012230194418441A
:101AF00000F0DAFFE868B0F8741022300E5400E00D
:101B000041E0E868B0F876102230014433A000F0DC
:101B10006DFFE868B0F8764003E02BA000F066FFA8
:101B2000641CE868B0F87400A04294DBF5E72DA0CF
:101B300000F05CFFE868B0F8741022300E5421E722
:101B400090F82100C00702D021A000F04FFFE86804
:101B5000B0F87410223000F0E7FBFFF795FE00F0BC
:101B600045FFE86851220021223000F0B7FFE86805
:101B700022E015A000F03AFF641CE868B0F8740099
:101B8000A042F6DC0AE022300C54E86890F821000C
:101B9000C00703D021460DA000F028FFE868B0F888
:101BA0007410491C89B2A0F87410B0F87620521C49
:101BB000A0F876205029C2D320F8746F4680E1E661
:101BC000AC00002025730000080000002563000021
:101BD0000A0000002573257300000000082573200B
:101BE000200800000820080010B5124C206880076B
:101BF00002D511A000F0FAFE2068400011D50D4872
:101C0000C01E007808B1FFF74BFD0A48001F00789E
:101C100008B100F0D3FA0748801E008808B101F02F
:101C200027FD2068002804DABDE8104008A000F075
:101C3000DDBE10BD2CED00E06661696C6564207648
:101C40006563746F722066657463680A0000000043
:101C50006465627567206576656E740A0000000031
:101C60002DE9F04104461E4617460D46084600F091
:101C70006BFF001D2060257200206760C4E90360CF
:101C8000BDE8F0812DE9F0410D4600212961E968A8
:101C900091B1297A81B12E6888B10446FEF7E4FA41
:101CA0000146A4F10C002A7A007A20F080009042CC
:101CB00009D00846FEF7DCFA0020BDE8F081344682
:101CC000FEF7D2FA0146686800272468B44201D1C1
:101CD000002404E010C0EA687F1CBA42F5D108462F
:101CE000FEF7C6FA20462F61E7E700002DE9F04134
:101CF00094B0002733A408230BAA022105A8FFF7FC
:101D0000AFFF082080460146224631A000F06EFE5B
:101D1000404600F0D3FB35A000F068FE05A9384628
:101D2000FFF7B0FF0746002643E00BA850F8264017
:101D30000C3CFEF799FA217A9DF81C2021F08001D5
:101D4000914202D0FEF794FA32E0FEF791FA04F1E4
:101D500014006169054681421FD000F064FEA18B2A
:101D6000CDE9001023460822414626A000F03EFEA1
:101D70002C680CE0A4F11402082126A000F036FE25
:101D80002068A84202D025A000F030FE2468AC42B2
:101D9000F0D115A000F02AFE0AE000F044FEA18B6D
:101DA000CDE900102346082241461DA000F01EFE8A
:101DB000761C0998B042B8DC002FAFD114B00020D7
:101DC000BDE8F08173656D6170686F726500000039
:101DD000252D2A2E73207620202073757370656E52
:101DE00064207468726561640A000000202D2D2D46
:101DF000202D2D2D2D2D2D2D2D2D2D2D2D2D2D0A43
:101E000000000000252D2A2E2A732025303364205F
:101E100025643A00252E2A73000000002F000000E0
:101E2000252D2A2E2A7320253033642025640A00AC
:101E30002DE9F041B4B000263DA408232CAA0121CD
:101E400008A8FFF70DFF08208046014622463A48C1
:101E500000F0CCFD404600F031FB38A000F0C6FD9C
:101E600008A93046FFF70EFF0646002557E02CA8CC
:101E700050F825400C3CFEF7F7F90746207A9DF80C
:101E8000281020F08000884203D03846FEF7F0F991
:101E900044E0782221460EA800F0E0FD3846FEF727
:101EA000E7F994F83500009023460822414633A014
:101EB00000F09CFD94F8340000F00700012807D0E2
:101EC000022807D040B1042808D0032808D00AE02F
:101ED0002DA006E02FA004E031A002E033A000E036
:101EE00035A000F083FDA76A00E07F1C3878232826
:101EF000FBD0206B00F0A2FF0146D4E90A023B1A96
:101F0000D31A64277B43276CCDE90071B3FBF2F34E
:101F1000E169401A81182BA000F068FD6D1C0C9837
:101F2000A842A4DC002E9BD134B00020BDE8F08193
:101F30007468726561640000E8380008202D2D2D5A
:101F400020202D2D2D2D2D2D2D202D2D2D2D2D2DE8
:101F50002D2D2D2D202D2D2D2D2D2D2D2D2D2D20CB
:101F6000202D2D2D2D2D2D20202D2D2D2D2D2D2DC8
:101F70002D2D2D202D2D2D0A00000000252D2A2E7F
:101F80002A73202533642000207265616479202043
:101F9000000000002073757370656E64000000001F
:101FA00020696E69742020200000000020636C6F9F
:101FB00073652020000000002072756E6E696E67E8
:101FC0000000000020307825303878203078253027
:101FD000387820202020253032642525202020300C
:101FE00078253038782025730A000000F0B593B0CA
:101FF00000262AA408230BAA0A2104A8FFF730FE12
:1020000008272246394627A000F0F0FC384600F0A9
:1020100055FA31A000F0EAFC04A93046FFF732FE81
:10202000064600252CE00BA850F825400C3CFEF796
:102030001BF9217A9DF8182021F08001914202D0ED
:10204000FEF716F91BE0FEF713F9D4E90901CDE913
:1020500000012346082239462BA000F0C7FC607A15
:10206000C00701D02EA000E031A000F0BFFC607AD4
:10207000800701D532A000E034A000F0B7FC6D1C51
:102080000898A842CFDC002EC6D101F03FF80146E7
:1020900031A000F0ABFC13B00020F0BD74696D6599
:1020A00072000000252D2A2E732020706572696F42
:1020B00064696320202074696D656F757420202029
:1020C0002061637469766174656420202020206D2E
:1020D0006F64650A00000000202D2D2D2D2D2D2D63
:1020E0002D2D2D202D2D2D2D2D2D2D2D2D2D202D3A
:1020F0002D2D2D2D2D2D2D2D2D2D202D2D2D2D2D1D
:102100002D2D2D2D0A000000252D2A2E2A7320307A
:102110007825303878203078253038782000000055
:10212000616374697661746564202020000000009A
:102130006465616374697661746564200000000001
:10214000706572696F6469630A0000006F6E6520D4
:1021500073686F740A00000063757272656E742094
:102160007469636B3A3078253038780A00000000D3
:10217000FEF722FCFFF758F8FFF720F8FFF72CF8DE
:102180004FF47A74204600F023FF02A000F02EFCEA
:10219000F8E7000048656C6C6F2052542D5468724B
:1021A000656164204E616E6F210A000010B500F079
:1021B00055FABDE81040FFF7DBBF000010B518A0CE
:1021C00000F014FC1B4C21781BA000F00FFC2078C1
:1021D000C00702D01EA000F009FC2078800702D5BD
:1021E0001EA000F003FC2078000702D51EA000F01E
:1021F000FDFB2078C00602D51EA000F0F7FB20787A
:10220000000607D50B480C300168BDE810401CA043
:1022100000F0ECBBBDE810401D4800F0E7BB00003B
:102220006D656D206D616E616765206661756C74AA
:102230003A0A000028ED00E05343425F4346535200
:102240005F4D4653523A3078253032582000000016
:102250004941434356494F4C200000004441434309
:1022600056494F4C200000004D554E53544B45529B
:10227000522000004D53544B4552522000000000A4
:102280005343422D3E4D4D41523A253038580A00B5
:10229000E03600082DE9F0478146002500782C46FD
:1022A00018B11E481E4F06682AE0BDE8F04700211D
:1022B000084600F06BB84846D6F80080FEF70DF9E6
:1022C000024641464846FEF727F9C0B925B94446BB
:1022D0004046FEF702F905464146204601E0401C13
:1022E000491C02781AB10B780BB19A42F7D0001B47
:1022F000A84200DA054641460AA000F077FB0C36FA
:1023000038688642D7D3002C06D02A462146484654
:10231000BDE8F04700F0A8BDBDE8F087AC000020A4
:10232000B000002025730A0038B5044601E0491EBC
:10233000641C59B120782028F9D00928F7D06A46C2
:102340002046FFF7EBF818B1204604E0002038BD26
:10235000009838BD401C0178202901D00029F9D10E
:1023600000210170214603A000F040FB4FF0FF3038
:1023700038BD000025733A20636F6D6D616E642077
:102380006E6F7420666F756E642E0A0070B50AA0B9
:1023900000F02CFB0F48104D046805E0D4E9001252
:1023A0000EA000F023FB0C3428688442F6D30EA064
:1023B00000F01CFB002070BD52542D546872656102
:1023C00064207368656C6C20636F6D6D616E6473FF
:1023D0003A0A0000AC000020B0000020252D313664
:1023E00073202D2025730A000A00000070B5002319
:1023F00015461C461A464BE000F8012B5B1C06787C
:10240000202E01D0092E01D18B42F5D3082C11D3F7
:1024100021A000F0EBFA002606E000BF55F82610D8
:1024200025A000F0E3FA761CA642F7D321A000F025
:10243000DDFA2FE08B422DD2F6B2222E03D045F8E2
:102440002400641C1BE0401C45F824005B1C641C39
:1024500008E05C2E04D14678222E01D1401C5B1C82
:10246000401C5B1C0678222E01D08B42F1D38B429C
:1024700010D200F8012B5B1C0AE0401C5B1C0678A4
:10248000202E03D0092E01D08B42F6D38B4201D2ED
:102490008B42B4D3204670BD546F6F206D616E794E
:1024A00020617267732021205765206F6E6C792040
:1024B0005573653A0A0000002573200010B50446E4
:1024C00002E003A000F092FA641EFAD210BD0000F0
:1024D0002D0000002DE9F04F85B09946DDE90EA5ED
:1024E000109CAB46630602D5DFF814C103E0DFF8A9
:1024F00010C1ACF1110CE30601D524F00104E3078F
:1025000001D0302300E0202300260493A3070BD53D
:10251000002A02DA2D26524206E0630701D52B2657
:1025200002E0230700D520260023EE4622B9302200
:102530008DF8002001230CE0B9F10A0F14D002F04D
:102540000F0812091CF808800EF803805B1C002A93
:10255000F2D1AB4200DD1D46AAEB050214F0110FCB
:102560004FF0200708D015E00A27B2FBF7F807FB69
:102570001828B2FBF7F2E5E73EB1002A05DD521E4E
:1025800003E0884200D20770401CB2F1000CA2F1B7
:102590000102F6DC26B1884200D20670401C521EB1
:1025A000E40605D508E0884201D2049C0470401C72
:1025B000141EA2F10102F6DC30242E466D1E9E424E
:1025C0000ADD884200D20470401CF6E7884201D23E
:1025D000E55C0570401C00E074461D1EA3F101037C
:1025E00007DDBBF1000FF1D103E0884200D2077094
:1025F000401C131EA2F10102F7DC05B0BDE8F08F0C
:102600007D3800081FB50A4C14230A224FF480615C
:10261000A4F580608DE80F000023064A06A120463D
:1026200000F0BEFC04B02046BDE8104000F01EBD26
:1026300000050020AD2100086D61696E00000000FA
:1026400070B5044C044D02E020688047241DAC4264
:10265000FAD370BD043A00080C3A000870B5044C77
:10266000044D02E020688047241DAC42FAD370BDBF
:102670000C3A0008143A000810B5FDF7F5FD044ABD
:102680005188491C5180BDE81040FDF7F1BD0000A4
:102690008400002010B5FDF7E7FD0B4C6188491E52
:1026A00009B2618000290ADC00216180FDF7E0FDAC
:1026B0006068002807D0BDE8104000F087BABDE888
:1026C0001040FDF7D5BD10BD8400002010B5FEF709
:1026D00073F9FEF7A9FDFEF7E5FDFEF78BFA4FF45F
:1026E0007A71B0FBF1F0FEF793FCBDE81040FFF704
:1026F000A7BF0000084810B500684FF0FF3401681C
:10270000C943890602D44068C4B202E00A2000F03E
:102710005FFCE0B210BD0000F0070020F8B50646EF
:102720000D200F498DF80000002481F83C40304610
:1027300000F092FB05460FE0305D0A2805D1012329
:102740001A4669460648FEF7DFFC012331191A468E
:102750000348FEF7D9FC641CAC42EDD3F8BD000081
:10276000F007002070B530490546283009682C1D57
:1027700011B18847002855D02CA0216C00F036F903
:102780002EA0616A00F032F930A0A16A00F02EF9A3
:1027900032A0E16A00F02AF934A0216B00F026F99A
:1027A00036A0616800F022F938A0A16800F01EF997
:1027B0003AA0E16800F01AF93CA0216900F016F98E
:1027C0003EA0616900F012F940A0A16900F00EF985
:1027D00042A0E16900F00AF944A0216A00F006F97C
:1027E00046A0616B00F002F948A0A16B00F0FEF872
:1027F0004AA0E16B00F0FAF82878400706D500F00F
:102800000DFC014649A000F0F1F802E04FA000F0F5
:10281000EDF82878C00602D453A000F0E7F8FFF7DF
:10282000E3F9FEE770BD00009C0000207073723A6F
:10283000203078253038780A000000007230303AB5
:10284000203078253038780A000000007230313AA4
:10285000203078253038780A000000007230323A93
:10286000203078253038780A000000007230333A82
:10287000203078253038780A000000007230343A71
:10288000203078253038780A000000007230353A60
:10289000203078253038780A000000007230363A4F
:1028A000203078253038780A000000007230373A3E
:1028B000203078253038780A000000007230383A2D
:1028C000203078253038780A000000007230393A1C
:1028D000203078253038780A000000007231303A14
:1028E000203078253038780A000000007231313A03
:1028F000203078253038780A000000007231323AF2
:10290000203078253038780A00000000206C723AB8
:10291000203078253038780A000000002070633AB3
:10292000203078253038780A000000006861726431
:10293000206661756C74206F6E20746872656164C6
:102940003A2025730D0A0D0A0000000068617264C8
:10295000206661756C74206F6E2068616E646C65B2
:10296000720D0A0D0A00000046505520616374691B
:102970007665210D0A00000070B50446121D22F094
:10298000070000220A4D443840F82250521C112AF8
:10299000FAD3416200218162C16200F13402016315
:1029A00082E81A004FF080730364016070BD00007C
:1029B000EFBEADDE10B5FDF757FC044A1178491C97
:1029C0001170BDE81040FDF753BC00001C00002052
:1029D00010B5FDF749FC044A1178491E1170BDE895
:1029E0001040FDF745BC00001C0000200FB47F2103
:1029F00010B503AB0748029A00F0A4FC04467F28F8
:102A000000D97F240348FFF789FE204610BC5DF8FB
:102A100014FB0000700600200268516002680A6022
:102A20000160486070470246002100E0491C0068D0
:102A30009042FBD108467047D0E900124A60D0E9C5
:102A400000121160406000607047D0E900124A60D7
:102A5000D0E90012116040600060704710B5034675
:102A6000102A1DD341EA0304A40719D110C9103A52
:102A700010C310C9102A10C351F8084B43F8084B73
:102A800051F8044C43F8044CF0D202E010C9121F74
:102A900010C3042AFAD203E011F8014B03F8014BEA
:102AA000521EF9D210BD000010B50346994211D252
:102AB0008C189C420ED9811804E000BF14F8013D27
:102AC00001F8013D521EF9D210BD00BF11F8014BB3
:102AD00003F8014B521EF9D210BD000010B5034699
:102AE000CCB2042A1AD3810718D1194644EA042328
:102AF00043EA034306E008C1103A08C141F8083B25
:102B000041F8043C102AF6D201E008C1121F042A41
:102B1000FBD20B4602E000BF03F8014B521EFBD272
:102B200010BD10B5044600202072FDF79DFBF4E9AE
:102B300003124A60D4E90012116064602460BDE8A9
:102B40001040FDF795BB0000074A002102EB01137E
:102B50001B78834202D102EB01107047491C032904
:102B6000F4DB002070470000540000202DE9F04104
:102B7000054617460E460846FFF7E6FF0446FFF7F0
:102B80007BFD211D606800E000688842FCD1FFF7F2
:102B900081FD46F08000287208223946284600F060
:102BA00063F9FDF761FB54F8041F0C354D60216893
:102BB000296025606C60BDE8F041FDF759BB007AE3
:102BC000000601D50120704700207047F8B5FDF7D9
:102BD0004BFB2A4D07466888D0BBA868C0B30026C7
:102BE0006846FEF7DBFC0446686890F8341001F094
:102BF0000702032A0ED190F83520009B9A4202D397
:102C000003D10A0701D4044600E0012621F008019F
:102C100080F83410844222D0009A29462A70054652
:102C20004C600EB100F02EF8204600F065F894F8E4
:102C3000340020F00700C01C84F8340010480078ED
:102C400004F11C01002805F11C0002D0FDF713FB64
:102C50000EE0FDF710FB3846FDF70AFBF8BD00F06B
:102C60004BF8686810F8341F21F00701C91C017087
:102C70003846BDE8F840FDF7FBBA000084000020AC
:102C80001C00002070B50546FDF7EEFA1849024613
:102C90004868854206D115F8340F20F00700C01CA3
:102CA000287020E095F8340005F1140420F00700A6
:102CB000401C85F8340003070E4895F8353000EBCA
:102CC000C30006D543681C604368636044602060AD
:102CD00005E003685C600368236004606060A86BC3
:102CE0008B6818438860BDE870401046FDF7C0BA95
:102CF00084000020F006002010B50446FDF7B4FA69
:102D000004F11401D1E900235360D1E900231A60D2
:102D1000A161616194F83520074951F8323001EB27
:102D2000C2018B4204D10549A36B8A689A438A6029
:102D3000BDE81040FDF79CBAF0060020840000209A
:102D40002DE9F04116460A461F4605460221FFF7C7
:102D50000DFF05F11404AC616C61AE836F7200204D
:102D6000BDE8F0811CB50AA0FFF740FE0BA0FFF7FD
:102D70003DFE13A115A0CDE9000101231A4604214F
:102D800015A0FFF733FE1DA0FFF730FE1CBD0000AD
:102D90000A205C207C202F0A000000002D205254C5
:102DA000202D2020202020546872656164204F70FF
:102DB00065726174696E672053797374656D0A007A
:102DC00031303A33313A3537000000004A616E2025
:102DD0002036203230323400202F207C205C20200E
:102DE00020202025642E25642E2564206275696CC0
:102DF000642025732025730A000000002032303043
:102E000036202D203230323220436F70797269675C
:102E100068742062792052542D5468726561642070
:102E20007465616D0A0000000FB410B504AA03991F
:102E300000F0CAFB10BC5DF814FB0000002800DAAB
:102E4000404204490B2801DDC86A704751F8200050
:102E50007047000024000020014600E0491C0A7869
:102E6000002AFBD1081A704710B5002A07D0034684
:102E700011F8014B03F8014B2CB1521EF8D110BDD3
:102E800003F8011B00E00021521EF9D110BD000023
:102E900010B5074B0022074C5A80104604EBC001C6
:102EA000401C496009602028F8DB9A6010BD0000D2
:102EB00084000020F006002038B56846FEF76EFB5F
:102EC0000446064844602046FFF716FF032084F8B6
:102ED000340004F11C00FDF714FA38BD8400002012
:102EE0000148406000607047940000207047000077
:102EF00070B50A480025046884420DD0A4F1140579
:102F0000FDF7B2F9D4E900124A60D4E90012116069
:102F100064602460FDF7ACF9284670BD1400002001
:102F2000044914300A6850600A6802600860416011
:102F30007047000014000020FFF7DAFF0400FBD008
:102F4000256FFFF73CFE012802D12046FFF7E9FD7F
:102F5000002DF1D02046A847EEE7000010B586B05E
:102F600000220BA104A8FFF75FFF0B4820231F22BC
:102F700080218DE80F00A0F1780420460023074A45
:102F800004A900F00DF8204600F070F806B010BD5E
:102F90007469646C65256400F0050020392F000811
:102FA0002DE9FF5F92460EAA0C4692E8E0010A4620
:102FB000994683460121FFF7D9FD8DE8E0014B4694
:102FC000524621465846FEF717FB04B0BDE8F09F75
:102FD00010B500F082F8BDE8104000F025B870B5DB
:102FE000044690F8340000F00700022802D04FF0A9
:102FF000FF3070BDFDF738F9054604F11400FFF706
:103000001BFD04F1440000F085F92046FFF73AFE6D
:103010002846FDF72DF9002070BD0000014800682A
:103020007047000088000020F1B50F480468FDF7E4
:103030001BF9064600252046256300F02BF804F115
:1030400044006A460021074600F0D0F8384600F0F8
:103050001FF93046FDF70CF9FFF7B8FD206B801C17
:1030600000D12563206BF8BD8800002010B590F8D2
:103070003520012191408163022180F83410FFF74F
:10308000AEFF0348006808B1FFF7A0FD002010BDA7
:103090008800002070B5044690F8340000F0070066
:1030A000012804D0032802D04FF0FF3070BDFDF797
:1030B000DBF805462046FFF71FFE94F8340020F0A9
:1030C0000700801C84F8340004F1440000F022F969
:1030D0002846FDF7CDF8002070BD002802DA4FF039
:1030E000FF3070474FF47A7190FBF1F290FBF1F3EF
:1030F00001FB130000EB40034A43C3EBC0104B1E1F
:1031000003EBC00090FBF1F01044704701480068E9
:10311000704700001000002010B5FDF7A5F8044628
:103120000E480168491C0160FFF778FF016C491ED9
:10313000016406D02046FDF79BF8BDE8104000F082
:103140000FB8C16B016410F8341F41F00801017021
:103150002046FDF78DF8FFF739FDEEE7100000205F
:103160002DE9FC41CDF804D0CDF800D0FFF7CEFF1B
:103170000646FDF779F807461B4D2DE060696FF0B4
:103180000041301A143C884229D22046FEF784FAC6
:10319000607A810702D420F00100607204F114010A
:1031A00088466846FFF738FCD4E907108847FFF7E0
:1031B000ADFF06460098694688420DD04046FFF7AD
:1031C00044FC607A810707D5C10705D020F00100D3
:1031D0006072204600F05CF82C68AC42CED13846D4
:1031E000FDF746F8BDE8FC819400002070B5154657
:1031F0000E460446FDF738F8062E17D2DFE806F033
:103200000503080C111A616A0FE0296861620DE07C
:10321000617A21F0020102E0617A41F002016172FB
:1032200004E0617AC90700D001212960FDF720F888
:10323000002070BDA16AF8E770B50446FDF714F8E8
:1032400005462046FEF728FA607A20F001006072F9
:103250002846FDF70DF82046FFF763FC002070BDFF
:103260002DE9F0411746DDE906580A461E46044698
:103270000A21FFF77BFC28F0010161720021C4E9FB
:103280000951C4E90776143464602460BDE8F08114
:103290002DE9F8430446FCF7E7FF80462046FEF799
:1032A000FBF9607A20F001006072FFF72FFF616A7E
:1032B000174A4318A3620020009202EBC00269463D
:1032C00056686FF000475DF820200AE01268A2EB14
:1032D000C0056D699D4202D0ED1ABD4203D341F88D
:1032E0002020B242F2D10A48001F0168491C016047
:1032F00004F114010098FFF78FFB607A40F00100A1
:1033000060724046FCF7B4FF0020BDE8F88300007F
:103310009400002070B50446407AC0070ED0FCF738
:10332000A3FF05462046FEF7B7F9607A20F00100BA
:1033300060722846FCF79CFF002070BD4FF0FF3004
:1033400070BD00002DE9FF4F8946044600EB0907D8
:1033500083B080464FF0FF3A4FF0200BA74202D2D5
:103360005746C8F1FF390BE1252803D0BC4200D2F3
:10337000207080E000260599491C059108782D28C9
:1033800011D02B2812D0202813D0232814D0302875
:1033900015D00A785546303A0A2A13D205A800F00B
:1033A00038F905461AE046F01006E4E746F0040650
:1033B000E1E746F00806DEE746F02006DBE746F0E8
:1033C0000106D8E72A2809D10698491C059120C88A
:1033D0000690002D02DA6D4246F010060598D4469C
:1033E00001782E2918D1401C05900178A1F13002F6
:1033F0000A2A04D205A800F00CF9844607E02A291D
:1034000008D1401C0590069850F804CB0690BCF1FA
:10341000000F01DA4FF0000C059A0020117868299E
:1034200001D06C2902D1521C0846059211780A235A
:103430006F2974D00CDC63291FD004DC25296FD0E0
:1034400058290DD184E0642901D0692908D183E08D
:10345000702966D073292CD075297FD0782979D02E
:10346000BC4201D2252020700598641C0178E9B384
:10347000BC4200D22170641C7FE0F00608D458469C
:103480006D1E002D04DDBC4200D22070641CF7E7E5
:103490000698BC4210F8041B069000D221705846D2
:1034A00002E0BC4200D22070641C6D1E002DF8DCCE
:1034B00063E0069802C8069001B941A1002000E02F
:1034C000401CA84202D00A5C002AF9D1BCF1000FCE
:1034D00002DD604500DD6046F2060BD45A462B46FD
:1034E0006D1E834206DDBC4202D200E054E0227031
:1034F000641CF4E7002206E0BC4201D20B78237082
:10350000491C521C641C8242F6DB5A4629466D1E39
:10351000814232DDBC4200D22270641CF6E715E025
:1035200010E0681C02D1082546F00106CDE9005CD8
:1035300006980296102304C806903946204619E0E2
:103540000CE007E0BC4296D2252011E7082305E0F5
:1035500046F04006102301E046F002066C2801D038
:1035600068281CD0069804C80690CDE9005C39464E
:1035700020460296FEF7AEFF04460598401C0590D3
:103580000598007800287FF4EFAEB9F1000F11D054
:10359000BC420DD220700DE0401E0590EDE706986C
:1035A00030F8041B06908AB2B007DED512B2DCE711
:1035B00007F8010C07B0A4EB0800BDE8F08F00008D
:1035C000284E554C4C290000134610B50A464FF0C2
:1035D000FF31FFF7B7FE10BD002070470020704795
:1035E000002070470020704710B5FCF73DFEFFF744
:1035F0006DF8FFF7B7FBFFF773FCFFF749FCFFF728
:1036000001F8FFF773FCFFF7A9FCFFF755FC00205A
:1036100010BD10B5014600206FF02F0307E0541CC9
:103620000C60127800EB800003EB400010440A6845
:103630001478303C0A2CF2D310BD00000B4810B5B2
:10364000094901604FF4E1314160002181600C22A1
:10365000C160C0E904128161C161FDF7EDFC002881
:1036600000D0FEE710BD000000100140F007002070
:1036700010B518A0FFF7BAF91A4C21881AA0FFF765
:10368000B5F92088C00702D01DA0FFF7AFF9208848
:10369000800702D51DA0FFF7A9F92088400702D5B1
:1036A0001DA0FFF7A3F92088000702D51CA0FFF793
:1036B0009DF92088C00502D51BA0FFF797F9208847
:1036C000800502D51BA0FFF791F9BDE8104004A0CA
:1036D000FFF78CB97573616765206661756C743A24
:1036E0000A0000002AED00E05343425F4346535274
:1036F0005F554653523A307825303258200000004A
:10370000554E444546494E5354522000494E565357
:103710005441544520000000494E565043200000BB
:103720004E4F435020000000554E414C49474E45F6
:103730004420000044495642595A45524F20000047
:1037400010B5FFF70FFB002010BD4FF04070E1EE09
:10375000100A70470000000000000000010203048E
:103760000607080900000000010203040000010030
:10377000020001000300010002000100040001003A
:103780000200010003000100020001000500010029
:10379000020001000300010002000100040001001A
:1037A0000200010003000100020001000600010008
:1037B00002000100030001000200010004000100FA
:1037C00002000100030001000200010005000100E9
:1037D00002000100030001000200010004000100DA
:1037E00002000100030001000200010007000100C7
:1037F00002000100030001000200010004000100BA
:1038000002000100030001000200010005000100A8
:103810000200010003000100020001000400010099
:103820000200010003000100020001000600010087
:103830000200010003000100020001000400010079
:103840000200010003000100020001000500010068
:103850000200010003000100020001000400010059
:103860000200010003000100020001003031323388
:103870003435363738396162636465660030313219
:103880003334353637383941424344454600000029
:103890004F4B000045494E56414C0000455253469F
:1038A000554C4C00454E4F4D454D000045494F008D
:1038B0004552524F52000000454E4F53595300009D
:1038C00045494E54525054004554494D4F555400AB
:1038D00045554E4B4E4F5700454255535900000039
:1038E0004552534550545900252D2A2E732070728D
:1038F0006920207374617475732020202020207348
:10390000702020202020737461636B2073697A65B6
:10391000206D61782075736564206C656674207411
:1039200069636B20206572726F720A00636C656157
:103930007200636C65617220746865207465726DD5
:10394000696E616C2073637265656E007665727373
:10395000696F6E0073686F772052542D54687265DA
:1039600061642076657273696F6E20696E666F722E
:103970006D6174696F6E006C6973745F74687265F1
:103980006164006C69737420746872656164006CB2
:103990006973745F73656D006C6973742073656D12
:1039A0006170686F726520696E2073797374656DDC
:1039B000006C6973745F74696D6572006C6973740F
:1039C0002074696D657220696E2073797374656DFA
:1039D000006C697374006C697374206F626A65634C
:1039E00074730068656C700052542D546872656180
:1039F00064207368656C6C2068656C702E00000034
:103A0000E5350008DD3500083D360008D9350008E9
:103A1000F5180008E13500082C3900083239000893
:103A2000891700084C39000854390008413700084C
:103A30007739000883390008311E00088F390008E3
:103A400098390008ED1C0008B1390008BC3900089D
:103A5000ED1F0008D1390008D63900089D1700086D
:103A6000E3390008E83900088D2300088C3A000883
:103A700000000020BC000000C4010008483B000812
:103A8000BC0000204C130000E00100080100000011
:103A900010000000000000000024F40000000000FE
:103AA00014000020140000200000000000000000AE
:103AB00090380008B0380008C83800089C38000862
:103AC000E0380008A4380008B8380008D8380008E2
:103AD000AC380008C038000894380008D038000816
:103AE000010000005800002058000020780000006D
:103AF0000200000068000020680000202000000094
:103B00000A00000078000020780000202C0000004F
:103B100000000000000000000000000000000000A5
:103B20000000000000000000000000000000000095
:103B30000000000000000000000000000000000085
:083B400000000000000000007D
:040000050800018965
:00000001FF
